:020000040000FA
:06000000B6EF14F012003F
:0600080084EF08F0120075
:060018008CEF08F012005D
:06110000B6EF14F012002E
:0611080011EF12F01200CD
:061118005CEF12F0120072
:06112A0001008C29000009
:081130009F0000000200000016
:08113800D9CFE6FFE1CFD9FF9A
:10114000E652A09A6A6A686A706A010EE66EE66AFA
:10115000E66A710EE66E0F0EE66E8CEC14F00B6E06
:10116000050EE15E0B50160E6F6E9F0E6B6E7B0EC2
:10117000696EDF6ADF500B6E0C6A080E0B5C000EA6
:101180000C5810E2DF50040DF3CFE9FFF4CFEAFF73
:10119000000EE926040EEA22EE6AEE6AEE6AEE6AB4
:1011A000DF2AE8D76D8C6E6A6D986D9C68A607D0B3
:1011B00068960001736B786B796B7A6BF7D70001D7
:1011C000010E8A6F8B6F8C6B8D6B806BDF6A020EEA
:1011D000DF5C26E2EA6ADF34FE0BEA36E96E6B0E6C
:1011E000E926000EEA22EE6AED6AEA6ADF34FE0BB7
:1011F000EA36E96E670EE926000EEA22EE6AED6A2B
:10120000DF50EA6A840FE96E000EEA22EF6ADF50CF
:10121000EA6A860FE96E000EEA22EF6ADF2AD7D764
:101220000001080E6B6F040E6C6F160E706E0401D9
:10123000200E026F040E036F080E016F840E006F04
:101240000001616B606BE552E552E7CFD9FF1200F8
:10125000D9CFE6FFE1CFD9FFE6520001600507E1F3
:101260006DBA05D0686A69806988020E606F68503F
:10127000040B06E06950040B03E0689439EC0FF0AE
:101280006DA202D0A19A97D06850010B09E0695075
:10129000010B06E051DFA08A0001040E606F689028
:1012A0006850100B06E06950100B03E024EC0FF0BF
:1012B000689868AC19D069AC0FD0010EE66EE66A8A
:1012C000000EE66EE66A730EE66EE66A95EC13F0C3
:1012D0000B6E060EE15E0B50689C0001885101E028
:1012E0008807885101E10BDA6850200B05E069504E
:1012F000200B02E00BEC0FF06850020B13E069507A
:10130000020B10E0010EE66EE66A000EE66EE66A7B
:10131000E6687F0EE66E95EC13F00B6E060EE15E4E
:101320000B506A6A040E0001E76E6019E8AE02D045
:10133000E73402D0E750605D02E2A19A3CD069A692
:1013400039D0DF6A040EDF5C35E268A632D06CCF9C
:1013500081F000018151780BE842E842E842826F57
:10136000689681B508D08251EA6A860FE96E000E50
:10137000EA22EF7007D08251EA6A840FE96E000E0C
:10138000EA22EF70825103E150EC0FF010D0000E12
:10139000E66EE66A810EE66E000EE66E720EE66E90
:1013A000E66A95EC13F00B6E060EE15E0B50DF2A39
:1013B000C9D700D0A19AE552E552E7CFD9FF120074
:1013C000D9CFE6FFE1CFD9FF020EE126FD0EDBA467
:1013D00007D0E66AFE0EDBCFE6FF22DAE552E552E1
:1013E000FD0EDBA208D0010EE66EFE0EDBCFE6FF9F
:1013F00017DAE552E552FE0EDB500C6A700F0B6EE9
:101400000F0E0C220BC0DEFF0CC0DDFFDECFE9FFAC
:10141000DDCFEAFFFD0EDBCFEFFF020EE15C02E263
:10142000E16AE552E16EE552E7CFD9FF1200D9CF6C
:10143000E6FFE1CFD9FF020EE126FD0EDB500FE003
:10144000FE0EEA6ADB34FE0BEA36E96E6B0EE92625
:10145000000EEA22EECFDEFFEDCFDDFF0ED0FE0E56
:10146000EA6ADB34FE0BEA36E96E670EE926000E07
:10147000EA22EECFDEFFEDCFDDFFD9CFE9FFDACFF5
:10148000EAFFEE50ED1003E1F36AF46A49D0DECFD3
:10149000E9FFDDCFEAFF020EE926000EEA22FB0E8D
:1014A000DBCFEEFFFC0EDBCFEDFFDECFE9FFDDCFC4
:1014B000EAFFEE52FA0EDBCFEFFF400E0B6EDECFEF
:1014C000E9FFDDCFEAFF0B50EF16880E0B6EDECF83
:1014D000E9FFDDCFEAFF0B50EF12FD0EDB500CE011
:1014E000FE0EEA6ADB34FE0BEA36E96E6B0EE92685
:1014F000000EEA22EF740BD0FE0EEA6ADB34FE0B1C
:10150000EA36E96E670EE926000EEA22EF74DECFB6
:101510000BF0DDCF0CF00BC0F3FF0CC0F4FF00D0DC
:10152000020EE15C02E2E16AE552E16EE552E7CFCC
:10153000D9FF1200D9CFE6FFE1CFD9FF020EE12695
:10154000FE0EDB5020E165C0E9FF66C0EAFFEE5207
:10155000080EEF6E65C0E9FF66C0EAFF020EE926DD
:10156000000EEA22200EEE6E040EED6E65C0E9FF5D
:1015700066C0EAFF8C0EEF6E6BC0E9FF6CC0EAFF3D
:10158000840EEF6E3DD0FD0EDB50E8240D6EFE0E96
:10159000DB50040DF3500D24040DF3CF0BF0F4CF0A
:1015A0000CF0000E0B26040E0C220BC0DEFF0CC04C
:1015B000DDFF840E0B6EDECFE9FFDDCFEAFF0B50BF
:1015C000EF12FD0EDB50E8240D6EFE0EDB50040D15
:1015D000F3500D24010F040DF3CF0BF0F4CF0CF0FA
:1015E000000E0B26040E0C220BC0DEFF0CC0DDFF2C
:1015F000840E0B6EDECFE9FFDDCFEAFF0B50EF125A
:10160000020EE15C02E2E16AE552E16EE552E7CFEB
:10161000D9FF1200D9CFE6FFE1CFD9FF6DA84ED098
:10162000FE0EEA6ADB34FE0BEA36E96E6B0EE92643
:10163000000EEA22EE50EFCFEAFFE96E400EEE1602
:10164000EE6AEE6AEE6AFE0EEA6ADB34FE0BEA36FA
:10165000E96E6B0EE926000EEA22EE50EFCFEAFFAC
:10166000E96EEE7CFE0EEA6ADB34FE0BEA36E96ECA
:101670006B0EE926000EEA22EF74400E0B6EFE0E92
:10168000EA6ADB34FE0BEA36E96E6B0EE926000EE1
:10169000EA22EE50EFCFEAFFE96E0B50EF16FE0E96
:1016A000EA6ADB34FE0BEA36E96E6B0EE926000EC1
:1016B000EA22EE50EFCFEAFFE96EEF7CE552E7CF8A
:1016C000D9FF12006D6A696A0001606B00D01200D8
:1016D0000001605113E16D6A696A160E6F6E9F0E0C
:1016E0006B6E7B0E696ED08EA28AA08AF28E6DB66A
:1016F00002D06D86FCD70001010E606F1200000160
:101700008A514DE1010E8A6F8B5149E1010E8B6FB9
:10171000020E705D0DE16BC0E9FF6CC0EAFFEE5296
:10172000EF6A6BC0E9FF6CC0EAFFC80EEF6E37D0FE
:10173000700535E1836B63C0E9FF64C0EAFFEE52D8
:10174000080EEF6E63C0E9FF64C0EAFF020EE926EF
:10175000000EEA22200EEE6E040EED6E63C0E9FF6D
:1017600064C0EAFF840EEF6E010E836F65C0E9FF6F
:1017700066C0EAFFEE52080EEF6E65C0E9FF66C074
:10178000EAFF020EE926000EEA22200EEE6E040E9B
:10179000ED6E65C0E9FF66C0EAFF800EEF6E1200D5
:1017A00000018C6B8D6B020E705D1AE165C0E9FF64
:1017B00066C0EAFFEE52080EEF6E65C0E9FF66C034
:1017C000EAFF020EE926000EEA22280EEE6E040E53
:1017D000ED6E65C0E9FF66C0EAFFC80EEF6E1FD070
:1017E00074510401265D000175510401275904E27A
:1017F00026C474F027C475F0D1D86BC0E9FF6CC063
:10180000EAFF020EE926000EEA22280EEE6E040E12
:10181000ED6E6BC0E9FF6CC0EAFFC80EEF6E120000
:10182000D9CFE6FFE1CFD9FF020EE126000EDE6E32
:10183000040EDD6EFD0EDB50E8240D6EFE0EDB5057
:10184000040DF3500D24040DF3CF0BF0F4CF0CF086
:10185000D9CFE9FFDACFEAFF0B50EE260C50ED228C
:10186000DECFE9FFDDCFEAFFEF9EFD0EDB500FE19B
:10187000FE0EEA6ADB34FE0BEA36E96E670EE926F5
:10188000000EEA22DECFEEFFDDCFEDFF0ED0FE0E22
:10189000EA6ADB34FE0BEA36E96E6B0EE926000ECF
:1018A000EA22DECFEEFFDDCFEDFFDECFE9FFDDCFB9
:1018B000EAFFEF9CDECFE9FFDDCFEAFF040EE92669
:1018C000000EEA22EF8C020EE15C02E2E16AE552D0
:1018D000E16EE552E7CFD9FF12006D98000173BFAA
:1018E0002BD078AF09D0020E706F8D5101E158DF17
:1018F00000018B6B8A6B1FD065C0E9FF66C0EAFFF1
:10190000EE52080EEF6E65C0E9FF66C0EAFF020EF8
:10191000E926000EEA22200EEE6E040EED6E65C082
:10192000E9FF66C0EAFF8C0EEF6E6BC0E9FF6CC08A
:10193000EAFF840EEF6E31D0040120AF0DD000011C
:10194000010E706F8C5101E12BDF00018B6B8A6BF4
:10195000895101E1D4DE21D00001020E706F65C013
:10196000E9FF66C0EAFFEE52080EEF6E65C0E9FFC0
:1019700066C0EAFF020EE926000EEA22200EEE6E95
:10198000040EED6E65C0E9FF66C0EAFF840EEF6EDF
:101990008B6B8A6B895101E1B2DE1200D9CFE6FF71
:1019A000E1CFD9FFE652080EDF6E0001745D000E34
:1019B00075590BE274C0DFFF6F5103E1010E6F6FC9
:1019C00004D06F0502E1020E6F6FDF500B6E0C6AE0
:1019D0000B50745D746F0C507559756F6BC0E9FFD7
:1019E0006CC0EAFFEE52DFCFEFFF280E7D6F040ED2
:1019F0007E6F73B119D0DF5016E071C0F6FF72C070
:101A0000F7FF712B000E72230800F550E66E7DC0C3
:101A1000E9FF7EC0EAFF7D2B000E7E23E552E750F2
:101A2000EF6EDF06E8D717D0DF5015E071C0E9FF91
:101A300072C0EAFF712B000E7223EF50E66E7DC07C
:101A4000E9FF7EC0EAFF7D2B000E7E23E552E750C2
:101A5000EF6EDF06E9D7E552E552E7CFD9FF120076
:101A6000D9CFE6FFE1CFD9FF020EE12663C0E9FF3F
:101A700064C0EAFFEE52EFCFDFFFDFCF0BF00B5079
:101A80000001795D000E7A5902E279C0DFFFDF5074
:101A90000B6E0C6A0B50795D796F0C507A597A6F26
:101AA000010EDB6ADF50F36E010EDBCFF4FFF35063
:101AB000F45C16E2010EDB50EA6A280FE96E040EB0
:101AC000EA22EF50E66E76C0E9FF77C0EAFF762B98
:101AD000000E7723E552E750EF6E010EDB2AE2D7C6
:101AE000000ED8807955000E7A5528E265C0E9FFCE
:101AF00066C0EAFFEE52080EEF6E65C0E9FF66C0F1
:101B0000EAFF020EE926000EEA22280EEE6E040E0F
:101B1000ED6E63C0E9FF64C0EAFFEF50400B07E1E0
:101B200065C0E9FF66C0EAFFC80EEF6E06D065C06B
:101B3000E9FF66C0EAFF880EEF6E28D065C0E9FFB6
:101B400066C0EAFFEE52080EEF6E65C0E9FF66C0A0
:101B5000EAFF020EE926000EEA22200EEE6E040EC7
:101B6000ED6E65C0E9FF66C0EAFF840EEF6E7B5143
:101B70007C1107E005D07CC0FAFF00017B51F96EB3
:101B8000FADF0001789F895101E1B9DD020EE15CC5
:101B900002E2E16AE552E16EE552E7CFD9FF1200B9
:101BA000D9CFE6FFE1CFD9FFE6520001738F010ED6
:101BB000E66EE66AE66A710EE66E0F0EE66E8CEC75
:101BC00014F00B6E050EE15E0B50200EE66EE66A19
:101BD000E66A000EE66E040EE66E8CEC14F00B6EF8
:101BE000050EE15E0B506D8CDF6A020EDF5C10E2C9
:101BF000DF50EA6A840FE96E000EEA22EF6ADF50D6
:101C0000EA6A860FE96E000EEA22EF6ADF2AEDD754
:101C1000010EE66EE66AE66A620EE66E000EE66E9B
:101C20008CEC14F00B6E050EE15E0B506D9C000108
:101C3000080E6B6F040E6C6F000E636F040E646F02
:101C400063C065F064C066F022C461F0615103E1D5
:101C5000100E606F13D0010EE66EE66A610EE66E3E
:101C6000000EE66E010EE66EE66A95EC13F00B6E62
:101C7000060EE15E0B500001200E606FE552E5524A
:101C8000E7CFD9FF1200800E0401205D5BE1000167
:101C9000C00E736F04012351030A34E0010A0EE001
:101CA000030A03E00001736B4DD00001C80E716F91
:101CB000270E726F120E746F756B44D02251F66E40
:101CC000F76AD890F636F736720EF626280EF72207
:101CD0000900F5CF71F00A00F5CF72F0020E000195
:101CE000F76A7125F66E7251F7220800F5CF74F08D
:101CF000030EF76A7125F66E7251F7220800F5CFD0
:101D000075F020D0030E225D1AE22251F66EF76ABA
:101D1000D890F636F736740EF626280EF72209000C
:101D2000F5CF71F00A00F5CF72F071C0F6FF72C006
:101D3000F7FF0800F5500001746F756B02D00001C9
:101D4000736B00D01200D9CFE6FFE1CFD9FF020EAE
:101D5000E1260401286B296B20511F0B020A12E0B7
:101D6000030A0DE0010A01E042D00001738F040173
:101D7000288100017F0502E10401288338D0000199
:101D8000738F35D00001738F040124BF10D024510C
:101D90000F0BE96EEA6AD890E936EA36670EE92653
:101DA000000EEA22EECFDEFFEDCFDDFF0FD0245193
:101DB0000F0BE96EEA6AD890E936EA366B0EE9262F
:101DC000000EEA22EECFDEFFEDCFDDFFDECFE9FF32
:101DD000DDCFEAFFEF50800B09E0DECFE9FFDDCF7A
:101DE000EAFFEF50040B02E0010E286F00D0000163
:101DF00073AF07D0280E716F040E726F7381020EDD
:101E0000746F020EE15C02E2E16AE552E16EE552B6
:101E1000E7CFD9FF120070A015D063C0E9FF64C0FE
:101E2000EAFFEF5080080DE16BC0E9FF6CC0EAFFEC
:101E3000EF50840806E163C0E9FF64C0EAFF8C0E3E
:101E4000EF6E7090689A1200698468986D82000144
:101E5000010E806F000EE66EE66AE66EE66A750EAB
:101E6000E66EE66A95EC13F00B6E060EE15E0B5023
:101E700012000001806B000EE66EE66AE66EE66A0E
:101E8000740EE66EE66A95EC13F00B6E060EE15EDC
:101E90000B506D92699468A402D06894FCD712002C
:101EA000D9CFE6FFE1CFD9FFE65200012D0E886FB2
:101EB000FD0E811553E17E0E8115E8407F0B040D68
:101EC000F3CF63F0F4CF64F0000E6327040E6423B5
:101ED00063C065F064C066F0657563C0E9FF64C007
:101EE000EAFFEF503C0BE842E8420D0835E1DF6ABB
:101EF000080EDF5C23E263C0E9FF64C0EAFF020E64
:101F0000E926000EEA22EE50EFCFEAFFE96EEF502D
:101F1000E66EDF50EA6A200FE96E040EEA22E5520F
:101F2000E750EF6E63C0E9FF64C0EAFF020EE926E6
:101F3000000EEA22EE2AEF22DF2ADAD763C0E9FF99
:101F400064C0EAFF020EE926000EEA22200EEE6EC1
:101F5000040EED6E0DD801D03AD805D0FD0E8115D6
:101F6000040801E159D8E552E552E7CFD9FF120044
:101F700000016F6B896B8C6B8D6B836B706B6BC0AF
:101F8000E9FF6CC0EAFFEF9E6B756BC0E9FF6CC0A8
:101F9000EAFFEF9E6B7565C0E9FF66C0EAFFEF9E42
:101FA000736B746B756B786B796B7A6B8FD8000E73
:101FB000E66EE66AE66EE66A030EE66EE66A95ECA3
:101FC00013F00B6E060EE15E0B506DEF0CF0020E7F
:101FD0000001705D02E144DD1ED0706B83511AE197
:101FE00065C0E9FF66C0EAFFEE52080EEF6E65C0FD
:101FF000E9FF66C0EAFF020EE926000EEA22200E83
:10200000EE6E040EED6E65C0E9FF66C0EAFF8C0E51
:10201000EF6E01D0836B1200D9CFE6FFE1CFD9FF7D
:10202000E6526BC0E9FF6CC0EAFFEF50400B01E0E5
:10203000010EDF6E00016B75080E605D09E122C4C0
:102040006EFF6E5003E0100E606F02D0040E606FE2
:10205000700528E16BC0E9FF6CC0EAFF020EE926BB
:10206000000EEA22280EEE6E040EED6E97DC020ED4
:1020700000016F5D07E16BC0E9FF6CC0EAFF840EF1
:10208000EF6E0FD0DF5007E16BC0E9FF6CC0EAFFD5
:10209000C80EEF6E06D06BC0E9FF6CC0EAFF880E79
:1020A000EF6E0FD078AF0CD07B517C1107E005D0DC
:1020B0007CC0FAFF00017B51F96EFADF0001789FC6
:1020C000706BE552E552E7CFD9FF120004012051B1
:1020D000600BE842E842E842E842E842000901E0D9
:1020E00058D021510C0A54E00B0A43E00C0A35E0A9
:1020F000010A26E00B0A22E0020A20E0030A1CE0A3
:10210000080A10E0010A0CE00F0A08E0030A01E0E7
:102110003FD00001738F080E606F3BD0B4DD39D023
:102120003FDD37D00001610E716F000E726F738159
:10213000010E746F738F2DD006DE2BD02BD829D0D3
:1021400024510001716F726B620E7127000E7223B1
:102150007381010E746F738F1CD00001738F0401A3
:102160002451EA6A620FE96E000EEA2222C4EFFFF0
:1021700010D0000EE66EE66AE66EE66A020EE66EC5
:10218000E66A95EC13F00B6E060EE15E0B5001D083
:1021900000D01200D9CFE6FFE1CFD9FF050EE1262E
:1021A0000401220510E120511F0B00090CE1000180
:1021B000738F030E0401215D04E10001010E7F6FA6
:1021C00002D000017F6B0401225101E020D1205197
:1021D0001F0B020801E01BD124510F0B000901E184
:1021E00016D124510F0B010801E211D1200E00017C
:1021F000605D01E00CD1738F040124BF1AD024511B
:102200000F0BE96EEA6AD890E936EA36670EE926DE
:10221000000EEA22EECFDEFFEDCFDDFF24510F0BE3
:10222000EA6A860FE96E000EEA22020EEFCFDBFFAC
:1022300019D024510F0BE96EEA6AD890E936EA36D4
:102240006B0EE926000EEA22EECFDEFFEDCFDDFFBA
:1022500024510F0BEA6A840FE96E000EEA22020E87
:10226000EFCFDBFFD950020FE96EDACFEAFFEF5074
:10227000010B03E1000EDF9401D0DF8424BF10D0F6
:1022800024510F0BE96EEA6AD890E936EA36670EF8
:10229000E926000EEA22DECFEEFFDDCFEDFF0FD004
:1022A00024510F0BE96EEA6AD890E936EA366B0ED4
:1022B000E926000EEA22DECFEEFFDDCFEDFF030EB2
:1022C000215D23E1DECFE9FFDDCFEAFFEF50800B98
:1022D00013E024BF09D024510F0BEA6A860FE96E80
:1022E000000EEA22EF8208D024510F0BEA6A840F15
:1022F000E96E000EEA22EF82840E0B6EDECFE9FF5C
:10230000DDCFEAFF0B50EF1282D0DF74DECFE9FFA2
:10231000DDCFEAFFEF50800B1BE0DECFE9FFDDCF22
:10232000EAFFEF9EDECFE9FFDDCFEAFFEF8C020E82
:10233000E66EE66ADECFE6FFDDCFE6FF050EE66E6F
:10234000E66A95EC13F00B6E060EE15E0B5005D0BD
:10235000DECFE9FFDDCFEAFFEF8CDF74D950020F4B
:10236000E96EDACFEAFFEF50020B07E1DECFE9FFBB
:10237000DDCFEAFFEF50800B2DE0040124BF09D030
:1023800024510F0BEA6A860FE96E000EEA22EF92E3
:1023900008D024510F0BEA6A840FE96E000EEA227E
:1023A000EF923B0E0B6EDECFE9FFDDCFEAFF0B5065
:1023B000EF16020EE66EE66ADECFE6FFDDCFE6FF41
:1023C000050EE66EE66A95EC13F00B6E060EE15E06
:1023D0000B5008D03B0E0B6EDECFE9FFDDCFEAFFDE
:1023E0000B50EF16040124510F0B0C6A700F0B6E8B
:1023F0000F0E0C22030E0BC0DBFF040E0CC0DBFF24
:10240000030EDBCFE9FF040EDBCFEAFFEF90050EF2
:10241000E15C02E2E16AE552E16EE552E7CFD9FF05
:022420001200A8
:0E242200DACFE4FFE2CFDAFFE9CFE4FFEACF42
:10243000E4FFF6CFE4FFF7CFE4FFF5CFE4FFF3CFFF
:10244000E4FFF4CFE4FFFACFE4FF00EE00F00B0E60
:10245000E80403E3EECFE4FFFBD700EE0BF0030E3E
:10246000E80403E3EECFE4FFFBD7E65228EC09F0E3
:10247000E55200EE0DF0030EE80403E3E5CFEDFFB7
:10248000FBD700EE0AF00B0EE80403E3E5CFEDFF07
:10249000FBD7E5CFFAFFE5CFF4FFE5CFF3FFE5CFBC
:1024A000F5FFE5CFF7FFE5CFF6FFE5CFEAFFE5CF94
:1024B000E9FFE5CFDAFF1100D8CFE4FFE0CFE4FF7A
:1024C000E46EDACFE4FFE2CFDAFFE652E552E5CF81
:1024D000DAFFE550E5CFE0FFE5CFD8FF100006D8E2
:1024E00068EC0BF0939E15D8FDD712000F0EC112A9
:1024F0000001996B9A6B9B6B9C6B02D89CEF08F068
:10250000F00E8A1693169388938A0001010E986F35
:1025100012000001985101E07CD8200E0001E76E06
:102520006019E8AE02D0E73402D0E750605D03E303
:102530006D50020B01E06CD0000199519A1102E13B
:10254000000E08D099C0E9FF9AC0EAFFEF50800B57
:1025500001E0010E00095CE105014051810A18E02B
:10256000010A05E0F40A01E040D08A7E3ED0000175
:10257000986B8A50010B0B6E8A50020B01E0010E22
:102580000B5C03E18A708A7202D08A808A822DD025
:1025900000019B519C1102E1000E08D09BC0E9FF95
:1025A0009CC0EAFFEF50800B01E0010E00091CE126
:1025B0000501810E006F81A803D0010E016F01D0CB
:1025C000016B400EE66E000EE66E050EE66E010E25
:1025D000E66EE66E17EC0AF00B6E050EE15E0B5030
:1025E000F3CF9BF0F4CF9CF000D0400EE66E400E8F
:1025F000E66E050EE66EE66A010EE66E17EC0AF070
:102600000B6E050EE15E0B50F3CF99F0F4CF9AF00C
:10261000120000019F51A01104E1100E9F6F270EC0
:10262000A06F9F07000EA05B6DA20AD09F51A01162
:1026300006E18A708AA002D08A8201D08A922ED0C6
:102640000001605103E18A908A9228D0600503E17D
:102650008A808A8223D0020E605D03E18A808A929A
:102660001DD0040E605D03E18A908A8217D0100E9F
:10267000605D07E100019F51A01102E18A708A921A
:102680000DD0200E605D0AE100019F51A01106E10E
:102690008A708AA002D08A9201D08A821200120027
:1026A000120012001200120012001E0EE66E010E41
:1026B000E66EE0EC09F0E552E552400EE66E400EA3
:1026C000E66E050EE66EE66A010EE66E17EC0AF09F
:1026D0000B6E050EE15E0B50F3CF99F0F4CF9AF03C
:1026E000120000017F0520E1000180051DE1A09A94
:1026F000D7DF6D920001806B0001100E9D6F0E0EF2
:102700009E6F9D07000E9E5B9D519E11FAE16D84A8
:10271000080E9D6F070E9E6F9D07000E9E5B9D51DC
:102720009E11FAE16D94A08A1200D9CFE6FFE1CFA5
:10273000D9FFFD0EDBCF06F0FE0EDBCF07F0050E56
:10274000061801E1075039E0E868061802E17F0E3B
:10275000071831E0030E061801E107502AE0020EC7
:10276000061801E1075023E0010E061801E10750A9
:102770001CE0740E061801E1075015E0750E0618EE
:1027800001E107500EE0730E061801E1075007E063
:10279000720E061801E1075001E010D00FD081DF62
:1027A0000DD07DDF0BD07CDF09D07FDF07D07CDF51
:1027B00005D079DF03D076DF01D000D0010E00D044
:0827C000E552E7CFD9FF12003A
:0827C8001201000200000008EC
:1027D000D8040402000001020001090220000101E6
:1027E00000C0320904000002FFFFFF0007050102DC
:1027F000400001070581024000010403090434037D
:102800004D006900630072006F006300680069009A
:102810007000200054006500630068006E006F00C7
:102820006C006F0067007900200049006E006300B3
:102830002E0040034D006900630072006F006300CA
:1028400068006900700020004C006900620075009B
:102850007300620020004500780061006D00700088
:102860006C0065002000440065007600690063008C
:0A2870006500DA27FA27FE27322858
:06287A002A0EF66E110E9D
:10288000F76E000EF86E00010900F550936F090015
:10289000F550946F03E1936701D03DD00900F550E6
:1028A0008E6F0900F5508F6F0900F550906F090089
:1028B0000900F550E96E0900F550EA6E09000900BB
:1028C0000900F550916F0900F550926F0900090059
:1028D000F6CF95F0F7CF96F0F8CF97F08EC0F6FFD1
:1028E0008FC0F7FF90C0F8FF0001915302E19253AF
:1028F00007E00900F550EE6E9107F8E29207F9D76C
:1029000095C0F6FF96C0F7FF97C0F8FF0001930748
:08291000000E945BBFD712001A
:08291800FE0EE3CFE9FFFF0E04
:10292000E3CFEAFFE9CFF3FFEACFF4FFFB0EE3507A
:1029300003E1FC0EE35009E0FB0EE30602E2FC0EAD
:0C294000E306FD0EE350EE6EF1D712002E
:04294C00000EF36E18
:1029500000EE00F0080E01D81200EA6002D0EE6A24
:0C296000FCD7F350E9601200EE6AFCD7CF
:04296C0013EE00F076
:1029700023EE00F0F86A0A9C3DEC14F0C5EC14F06C
:082980006FEC12F0FBD712000E
:0229880012003B
:02298A00120039
:02298C00000049
:020000040030CA
:0100000024DB
:010001000EF0
:010002003FBE
:010003001EDE
:010005008179
:010006008178
:010008000FE8
:01000900C036
:01000A000FE6
:01000B00E014
:01000C000FE4
:01000D0040B2
:00000001FF
